{
  "abi": [
    {
      "type": "constructor",
      "inputs": [
        {
          "name": "_initialSupply",
          "type": "uint256",
          "internalType": "uint256"
        },
        {
          "name": "_capSupply",
          "type": "uint256",
          "internalType": "uint256"
        },
        {
          "name": "_faucetTokens",
          "type": "uint256",
          "internalType": "uint256"
        }
      ],
      "stateMutability": "nonpayable"
    },
    {
      "type": "function",
      "name": "allowance",
      "inputs": [
        {
          "name": "owner_",
          "type": "address",
          "internalType": "address"
        },
        {
          "name": "_spender",
          "type": "address",
          "internalType": "address"
        }
      ],
      "outputs": [
        {
          "name": "amount",
          "type": "uint256",
          "internalType": "uint256"
        }
      ],
      "stateMutability": "view"
    },
    {
      "type": "function",
      "name": "approve",
      "inputs": [
        {
          "name": "_spender",
          "type": "address",
          "internalType": "address"
        },
        {
          "name": "_value",
          "type": "uint256",
          "internalType": "uint256"
        }
      ],
      "outputs": [
        {
          "name": "success",
          "type": "bool",
          "internalType": "bool"
        }
      ],
      "stateMutability": "nonpayable"
    },
    {
      "type": "function",
      "name": "balanceOf",
      "inputs": [
        {
          "name": "account",
          "type": "address",
          "internalType": "address"
        }
      ],
      "outputs": [
        {
          "name": "amount",
          "type": "uint256",
          "internalType": "uint256"
        }
      ],
      "stateMutability": "view"
    },
    {
      "type": "function",
      "name": "burn",
      "inputs": [
        {
          "name": "_amount",
          "type": "uint256",
          "internalType": "uint256"
        }
      ],
      "outputs": [
        {
          "name": "success",
          "type": "bool",
          "internalType": "bool"
        }
      ],
      "stateMutability": "nonpayable"
    },
    {
      "type": "function",
      "name": "cap",
      "inputs": [],
      "outputs": [
        {
          "name": "",
          "type": "uint256",
          "internalType": "uint256"
        }
      ],
      "stateMutability": "view"
    },
    {
      "type": "function",
      "name": "claimFaucet",
      "inputs": [],
      "outputs": [
        {
          "name": "success",
          "type": "bool",
          "internalType": "bool"
        }
      ],
      "stateMutability": "nonpayable"
    },
    {
      "type": "function",
      "name": "decimals",
      "inputs": [],
      "outputs": [
        {
          "name": "",
          "type": "uint8",
          "internalType": "uint8"
        }
      ],
      "stateMutability": "view"
    },
    {
      "type": "function",
      "name": "decreaseAllowance",
      "inputs": [
        {
          "name": "_spender",
          "type": "address",
          "internalType": "address"
        },
        {
          "name": "_subtractedValue",
          "type": "uint256",
          "internalType": "uint256"
        }
      ],
      "outputs": [
        {
          "name": "success",
          "type": "bool",
          "internalType": "bool"
        }
      ],
      "stateMutability": "nonpayable"
    },
    {
      "type": "function",
      "name": "faucetAmount",
      "inputs": [],
      "outputs": [
        {
          "name": "",
          "type": "uint256",
          "internalType": "uint256"
        }
      ],
      "stateMutability": "view"
    },
    {
      "type": "function",
      "name": "hasClaimedFaucet",
      "inputs": [
        {
          "name": "_claimer",
          "type": "address",
          "internalType": "address"
        }
      ],
      "outputs": [
        {
          "name": "",
          "type": "bool",
          "internalType": "bool"
        }
      ],
      "stateMutability": "view"
    },
    {
      "type": "function",
      "name": "increaseAllowance",
      "inputs": [
        {
          "name": "_spender",
          "type": "address",
          "internalType": "address"
        },
        {
          "name": "_addedValue",
          "type": "uint256",
          "internalType": "uint256"
        }
      ],
      "outputs": [
        {
          "name": "success",
          "type": "bool",
          "internalType": "bool"
        }
      ],
      "stateMutability": "nonpayable"
    },
    {
      "type": "function",
      "name": "mint",
      "inputs": [
        {
          "name": "_to",
          "type": "address",
          "internalType": "address"
        },
        {
          "name": "_amount",
          "type": "uint256",
          "internalType": "uint256"
        }
      ],
      "outputs": [
        {
          "name": "success",
          "type": "bool",
          "internalType": "bool"
        }
      ],
      "stateMutability": "nonpayable"
    },
    {
      "type": "function",
      "name": "name",
      "inputs": [],
      "outputs": [
        {
          "name": "",
          "type": "string",
          "internalType": "string"
        }
      ],
      "stateMutability": "view"
    },
    {
      "type": "function",
      "name": "owner",
      "inputs": [],
      "outputs": [
        {
          "name": "",
          "type": "address",
          "internalType": "address"
        }
      ],
      "stateMutability": "view"
    },
    {
      "type": "function",
      "name": "pause",
      "inputs": [],
      "outputs": [],
      "stateMutability": "nonpayable"
    },
    {
      "type": "function",
      "name": "paused",
      "inputs": [],
      "outputs": [
        {
          "name": "",
          "type": "bool",
          "internalType": "bool"
        }
      ],
      "stateMutability": "view"
    },
    {
      "type": "function",
      "name": "symbol",
      "inputs": [],
      "outputs": [
        {
          "name": "",
          "type": "string",
          "internalType": "string"
        }
      ],
      "stateMutability": "view"
    },
    {
      "type": "function",
      "name": "totalSupply",
      "inputs": [],
      "outputs": [
        {
          "name": "supply",
          "type": "uint256",
          "internalType": "uint256"
        }
      ],
      "stateMutability": "view"
    },
    {
      "type": "function",
      "name": "transfer",
      "inputs": [
        {
          "name": "_to",
          "type": "address",
          "internalType": "address"
        },
        {
          "name": "_value",
          "type": "uint256",
          "internalType": "uint256"
        }
      ],
      "outputs": [
        {
          "name": "success",
          "type": "bool",
          "internalType": "bool"
        }
      ],
      "stateMutability": "nonpayable"
    },
    {
      "type": "function",
      "name": "transferFrom",
      "inputs": [
        {
          "name": "_from",
          "type": "address",
          "internalType": "address"
        },
        {
          "name": "_to",
          "type": "address",
          "internalType": "address"
        },
        {
          "name": "_amount",
          "type": "uint256",
          "internalType": "uint256"
        }
      ],
      "outputs": [
        {
          "name": "success",
          "type": "bool",
          "internalType": "bool"
        }
      ],
      "stateMutability": "nonpayable"
    },
    {
      "type": "function",
      "name": "transferOwnership",
      "inputs": [
        {
          "name": "_newOwner",
          "type": "address",
          "internalType": "address"
        }
      ],
      "outputs": [],
      "stateMutability": "nonpayable"
    },
    {
      "type": "function",
      "name": "unpause",
      "inputs": [],
      "outputs": [],
      "stateMutability": "nonpayable"
    },
    {
      "type": "event",
      "name": "Approval",
      "inputs": [
        {
          "name": "owner",
          "type": "address",
          "indexed": true,
          "internalType": "address"
        },
        {
          "name": "spender",
          "type": "address",
          "indexed": true,
          "internalType": "address"
        },
        {
          "name": "amount",
          "type": "uint256",
          "indexed": false,
          "internalType": "uint256"
        }
      ],
      "anonymous": false
    },
    {
      "type": "event",
      "name": "Burn",
      "inputs": [
        {
          "name": "from",
          "type": "address",
          "indexed": true,
          "internalType": "address"
        },
        {
          "name": "amount",
          "type": "uint256",
          "indexed": false,
          "internalType": "uint256"
        }
      ],
      "anonymous": false
    },
    {
      "type": "event",
      "name": "FaucetClaimed",
      "inputs": [
        {
          "name": "claimer",
          "type": "address",
          "indexed": true,
          "internalType": "address"
        },
        {
          "name": "amount",
          "type": "uint256",
          "indexed": false,
          "internalType": "uint256"
        }
      ],
      "anonymous": false
    },
    {
      "type": "event",
      "name": "Mint",
      "inputs": [
        {
          "name": "to",
          "type": "address",
          "indexed": true,
          "internalType": "address"
        },
        {
          "name": "amount",
          "type": "uint256",
          "indexed": false,
          "internalType": "uint256"
        }
      ],
      "anonymous": false
    },
    {
      "type": "event",
      "name": "OwnershipTransferred",
      "inputs": [
        {
          "name": "previousOwner",
          "type": "address",
          "indexed": true,
          "internalType": "address"
        },
        {
          "name": "newOwner",
          "type": "address",
          "indexed": true,
          "internalType": "address"
        }
      ],
      "anonymous": false
    },
    {
      "type": "event",
      "name": "Transfer",
      "inputs": [
        {
          "name": "from",
          "type": "address",
          "indexed": true,
          "internalType": "address"
        },
        {
          "name": "to",
          "type": "address",
          "indexed": true,
          "internalType": "address"
        },
        {
          "name": "amount",
          "type": "uint256",
          "indexed": false,
          "internalType": "uint256"
        }
      ],
      "anonymous": false
    },
    {
      "type": "error",
      "name": "AllowanceBelowZero",
      "inputs": [
        {
          "name": "currentAllowance",
          "type": "uint256",
          "internalType": "uint256"
        },
        {
          "name": "subtractedValue",
          "type": "uint256",
          "internalType": "uint256"
        }
      ]
    },
    {
      "type": "error",
      "name": "AlreadyClaimedFaucet",
      "inputs": []
    },
    {
      "type": "error",
      "name": "AmountCannotBeZero",
      "inputs": []
    },
    {
      "type": "error",
      "name": "ApprovalAmountExceedsBalance",
      "inputs": [
        {
          "name": "balance",
          "type": "uint256",
          "internalType": "uint256"
        },
        {
          "name": "amount",
          "type": "uint256",
          "internalType": "uint256"
        }
      ]
    },
    {
      "type": "error",
      "name": "ApprovalToSelf",
      "inputs": []
    },
    {
      "type": "error",
      "name": "ApprovalToZeroAddress",
      "inputs": []
    },
    {
      "type": "error",
      "name": "BurnAmountExceedsBalance",
      "inputs": [
        {
          "name": "balance",
          "type": "uint256",
          "internalType": "uint256"
        },
        {
          "name": "burnAmount",
          "type": "uint256",
          "internalType": "uint256"
        }
      ]
    },
    {
      "type": "error",
      "name": "CapExceeded",
      "inputs": [
        {
          "name": "currentSupply",
          "type": "uint256",
          "internalType": "uint256"
        },
        {
          "name": "mintAmount",
          "type": "uint256",
          "internalType": "uint256"
        },
        {
          "name": "cap",
          "type": "uint256",
          "internalType": "uint256"
        }
      ]
    },
    {
      "type": "error",
      "name": "ContractPaused",
      "inputs": []
    },
    {
      "type": "error",
      "name": "MintToZeroAddress",
      "inputs": []
    },
    {
      "type": "error",
      "name": "NotOwner",
      "inputs": []
    },
    {
      "type": "error",
      "name": "TransferAmountExceedsAllowance",
      "inputs": [
        {
          "name": "allowance",
          "type": "uint256",
          "internalType": "uint256"
        },
        {
          "name": "amount",
          "type": "uint256",
          "internalType": "uint256"
        }
      ]
    },
    {
      "type": "error",
      "name": "TransferAmountExceedsBalance",
      "inputs": [
        {
          "name": "balance",
          "type": "uint256",
          "internalType": "uint256"
        },
        {
          "name": "amount",
          "type": "uint256",
          "internalType": "uint256"
        }
      ]
    },
    {
      "type": "error",
      "name": "TransferAmountZero",
      "inputs": []
    },
    {
      "type": "error",
      "name": "TransferFromZeroAddress",
      "inputs": []
    },
    {
      "type": "error",
      "name": "TransferOwnershipToZeroAddress",
      "inputs": []
    },
    {
      "type": "error",
      "name": "TransferToZeroAddress",
      "inputs": []
    }
  ],
  "bytecode": {
    "object": "0x610100604052600c60c09081526b2a39bab73232b932a1b7b4b760a11b60e0525f9061002b9082610236565b506040805180820190915260038152622a29a760e91b60208201526001906100539082610236565b506002805460ff1916601217905534801561006c575f5ffd5b5060405161182b38038061182b83398101604081905261008b916102f0565b828210156100df5760405162461bcd60e51b815260206004820152601d60248201527f436170206d757374206265203e3d20696e697469616c20737570706c79000000604482015260640160405180910390fd5b600480546001600160a01b031916331790556002546101029060ff16600a610414565b61010c9083610426565b6080526002546101209060ff16600a610414565b61012a9084610426565b6003819055335f9081526005602052604090205560025461014f9060ff16600a610414565b6101599082610426565b60a05260035460405190815233905f907fddf252ad1be2c89b69c2b068fc378daa952ba7f163c4a11628f55a4df523b3ef9060200160405180910390a350505061043d565b634e487b7160e01b5f52604160045260245ffd5b600181811c908216806101c657607f821691505b6020821081036101e457634e487b7160e01b5f52602260045260245ffd5b50919050565b601f82111561023157805f5260205f20601f840160051c8101602085101561020f5750805b601f840160051c820191505b8181101561022e575f815560010161021b565b50505b505050565b81516001600160401b0381111561024f5761024f61019e565b6102638161025d84546101b2565b846101ea565b6020601f821160018114610295575f831561027e5750848201515b5f19600385901b1c1916600184901b17845561022e565b5f84815260208120601f198516915b828110156102c457878501518255602094850194600190920191016102a4565b50848210156102e157868401515f19600387901b60f8161c191681555b50505050600190811b01905550565b5f5f5f60608486031215610302575f5ffd5b5050815160208301516040909301519094929350919050565b634e487b7160e01b5f52601160045260245ffd5b6001815b600184111561036a5780850481111561034e5761034e61031b565b600184161561035c57908102905b60019390931c928002610333565b935093915050565b5f826103805750600161040e565b8161038c57505f61040e565b81600181146103a257600281146103ac576103c8565b600191505061040e565b60ff8411156103bd576103bd61031b565b50506001821b61040e565b5060208310610133831016604e8410600b84101617156103eb575081810a61040e565b6103f75f19848461032f565b805f190482111561040a5761040a61031b565b0290505b92915050565b5f61041f8383610372565b9392505050565b808202811582820484141761040e5761040e61031b565b60805160a0516113806104ab5f395f81816102c901528181610c2301528181610c6f01528181610cc301528181610d0901528181610d7e01528181610db20152610e0701525f81816101c8015281816109420152818161099601528181610c020152610c9501526113805ff3fe608060405234801561000f575f5ffd5b506004361061013d575f3560e01c80635c975abb116100b457806395d89b411161007957806395d89b41146102bf5780639c281430146102c7578063a457c2d7146102ed578063a9059cbb14610300578063dd62ed3e14610313578063f2fde38b1461034b575f5ffd5b80635c975abb146102375780636db7494a1461024957806370a08231146102745780638456cb591461029c5780638da5cb5b146102a4575f5ffd5b8063355274ea11610105578063355274ea146101c657806339509351146101ec5780633f4ba83a146101ff57806340c10f191461020957806342966c681461021c5780634fe153351461022f575f5ffd5b806306fdde0314610141578063095ea7b31461015f57806318160ddd1461018257806323b872dd14610194578063313ce567146101a7575b5f5ffd5b61014961035e565b60405161015691906111a4565b60405180910390f35b61017261016d3660046111f4565b6103e9565b6040519015158152602001610156565b6003545b604051908152602001610156565b6101726101a236600461121c565b61051a565b6002546101b49060ff1681565b60405160ff9091168152602001610156565b7f0000000000000000000000000000000000000000000000000000000000000000610186565b6101726101fa3660046111f4565b610758565b610207610867565b005b6101726102173660046111f4565b6108a1565b61017261022a366004611256565b610a6c565b610172610ba3565b600454600160a01b900460ff16610172565b61017261025736600461126d565b6001600160a01b03165f9081526007602052604090205460ff1690565b61018661028236600461126d565b6001600160a01b03165f9081526005602052604090205490565b610207610e4c565b6004546040516001600160a01b039091168152602001610156565b610149610e8c565b7f0000000000000000000000000000000000000000000000000000000000000000610186565b6101726102fb3660046111f4565b610e99565b61017261030e3660046111f4565b610fca565b61018661032136600461128d565b6001600160a01b039182165f90815260066020908152604080832093909416825291909152205490565b61020761035936600461126d565b611101565b5f805461036a906112be565b80601f0160208091040260200160405190810160405280929190818152602001828054610396906112be565b80156103e15780601f106103b8576101008083540402835291602001916103e1565b820191905f5260205f20905b8154815290600101906020018083116103c457829003601f168201915b505050505081565b6004545f90600160a01b900460ff16156104165760405163ab35696f60e01b815260040160405180910390fd5b6001600160a01b03831661043d57604051633424766160e01b815260040160405180910390fd5b6001600160a01b03831633036104665760405163ee7330b960e01b815260040160405180910390fd5b335f908152600560205260409020548211156104b557335f908152600560205260409081902054905163773f135f60e11b81526004810191909152602481018390526044015b60405180910390fd5b335f8181526006602090815260408083206001600160a01b03881680855290835292819020869055518581529192917f8c5be1e5ebec7d5bd14f71427d1e84f3dd0314c0f7b2291e5b200ac8c7c3b92591015b60405180910390a35060015b92915050565b6004545f90600160a01b900460ff16156105475760405163ab35696f60e01b815260040160405180910390fd5b6001600160a01b03831661056e57604051633a954ecd60e21b815260040160405180910390fd5b6001600160a01b03841661059557604051630b07e54560e11b815260040160405180910390fd5b815f036105b5576040516329a1e53760e01b815260040160405180910390fd5b6001600160a01b0384165f908152600660209081526040808320338452909152902054821115610627576001600160a01b0384165f9081526006602090815260408083203384529091529081902054905163b2811c5960e01b81526004810191909152602481018390526044016104ac565b6001600160a01b0384165f90815260056020526040902054821115610683576001600160a01b0384165f90815260056020526040908190205490516350d2479d60e11b81526004810191909152602481018390526044016104ac565b6001600160a01b0384165f908152600660209081526040808320338452909152812080548492906106b5908490611304565b90915550506001600160a01b0384165f90815260056020526040812080548492906106e1908490611304565b90915550506001600160a01b0383165f908152600560205260408120805484929061070d908490611317565b92505081905550826001600160a01b0316846001600160a01b03165f51602061132b5f395f51905f528460405161074691815260200190565b60405180910390a35060019392505050565b6004545f90600160a01b900460ff16156107855760405163ab35696f60e01b815260040160405180910390fd5b81805f036107a65760405163d11b25af60e01b815260040160405180910390fd5b6001600160a01b0384166107cd57604051633424766160e01b815260040160405180910390fd5b335f9081526006602090815260408083206001600160a01b0388168452909152812080548592906107ff908490611317565b9091555050335f8181526006602090815260408083206001600160a01b038916808552908352928190205490519081529192917f8c5be1e5ebec7d5bd14f71427d1e84f3dd0314c0f7b2291e5b200ac8c7c3b925910160405180910390a35060019392505050565b6004546001600160a01b03163314610892576040516330cd747160e01b815260040160405180910390fd5b6004805460ff60a01b19169055565b6004545f906001600160a01b031633146108ce576040516330cd747160e01b815260040160405180910390fd5b600454600160a01b900460ff16156108f95760405163ab35696f60e01b815260040160405180910390fd5b81805f0361091a5760405163d11b25af60e01b815260040160405180910390fd5b6001600160a01b03841661094057604051622e076360e81b815260040160405180910390fd5b7f00000000000000000000000000000000000000000000000000000000000000008360035461096f9190611317565b11156109c257600354604051630cf95ce560e01b81526004810191909152602481018490527f000000000000000000000000000000000000000000000000000000000000000060448201526064016104ac565b8260035f8282546109d39190611317565b90915550506001600160a01b0384165f90815260056020526040812080548592906109ff908490611317565b90915550506040518381526001600160a01b038516907f0f6798a560793a54c3bcfe86a93cde1e73087d944c0ea20544137d41213968859060200160405180910390a26040518381526001600160a01b038516905f905f51602061132b5f395f51905f5290602001610746565b6004545f90600160a01b900460ff1615610a995760405163ab35696f60e01b815260040160405180910390fd5b81805f03610aba5760405163d11b25af60e01b815260040160405180910390fd5b335f90815260056020526040902054831115610b0457335f908152600560205260409081902054905163dfd404f760e01b81526004810191909152602481018490526044016104ac565b335f9081526005602052604081208054859290610b22908490611304565b925050819055508260035f828254610b3a9190611304565b909155505060405183815233907fcc16f5dbb4873280815c1ee09dbd06736cffcc184412cf7a71a0fdb75d397ca59060200160405180910390a26040518381525f9033905f51602061132b5f395f51905f529060200160405180910390a3600191505b50919050565b6004545f90600160a01b900460ff1615610bd05760405163ab35696f60e01b815260040160405180910390fd5b335f9081526007602052604090205460ff1615610c005760405163456f998f60e01b815260040160405180910390fd5b7f00000000000000000000000000000000000000000000000000000000000000007f0000000000000000000000000000000000000000000000000000000000000000600354610c4f9190611317565b1115610cc157600354604051630cf95ce560e01b815260048101919091527f000000000000000000000000000000000000000000000000000000000000000060248201527f000000000000000000000000000000000000000000000000000000000000000060448201526064016104ac565b7f000000000000000000000000000000000000000000000000000000000000000060035f828254610cf29190611317565b9091555050335f90815260056020526040812080547f00000000000000000000000000000000000000000000000000000000000000009290610d35908490611317565b9091555050335f8181526007602052604090819020805460ff19166001179055517f5d4f415c63cd8a5874d9d291cdd64cec37e5dc236d90d659c958d109d78074b390610da5907f0000000000000000000000000000000000000000000000000000000000000000815260200190565b60405180910390a26040517f0000000000000000000000000000000000000000000000000000000000000000815233907f0f6798a560793a54c3bcfe86a93cde1e73087d944c0ea20544137d41213968859060200160405180910390a26040517f0000000000000000000000000000000000000000000000000000000000000000815233905f905f51602061132b5f395f51905f529060200160405180910390a350600190565b6004546001600160a01b03163314610e77576040516330cd747160e01b815260040160405180910390fd5b6004805460ff60a01b1916600160a01b179055565b6001805461036a906112be565b6004545f90600160a01b900460ff1615610ec65760405163ab35696f60e01b815260040160405180910390fd5b81805f03610ee75760405163d11b25af60e01b815260040160405180910390fd5b6001600160a01b038416610f0e57604051633424766160e01b815260040160405180910390fd5b335f9081526006602090815260408083206001600160a01b038816845290915290205483811015610f5c57604051633866e1ad60e21b815260048101829052602481018590526044016104ac565b610f668482611304565b335f8181526006602090815260408083206001600160a01b038b16808552908352928190208590555193845290927f8c5be1e5ebec7d5bd14f71427d1e84f3dd0314c0f7b2291e5b200ac8c7c3b925910160405180910390a3506001949350505050565b6004545f90600160a01b900460ff1615610ff75760405163ab35696f60e01b815260040160405180910390fd5b6001600160a01b03831661101e57604051633a954ecd60e21b815260040160405180910390fd5b815f0361103e576040516329a1e53760e01b815260040160405180910390fd5b335f9081526005602052604090205482111561108857335f90815260056020526040908190205490516350d2479d60e11b81526004810191909152602481018390526044016104ac565b335f90815260056020526040812080548492906110a6908490611304565b90915550506001600160a01b0383165f90815260056020526040812080548492906110d2908490611317565b90915550506040518281526001600160a01b0384169033905f51602061132b5f395f51905f5290602001610508565b6004546001600160a01b0316331461112c576040516330cd747160e01b815260040160405180910390fd5b6001600160a01b0381166111535760405163367a8f2960e01b815260040160405180910390fd5b600480546001600160a01b038381166001600160a01b0319831681179093556040519116919082907f8be0079c531659141344cd1fd0a4f28419497f9722a3daafe3b4186f6b6457e0905f90a35050565b602081525f82518060208401528060208501604085015e5f604082850101526040601f19601f83011684010191505092915050565b80356001600160a01b03811681146111ef575f5ffd5b919050565b5f5f60408385031215611205575f5ffd5b61120e836111d9565b946020939093013593505050565b5f5f5f6060848603121561122e575f5ffd5b611237846111d9565b9250611245602085016111d9565b929592945050506040919091013590565b5f60208284031215611266575f5ffd5b5035919050565b5f6020828403121561127d575f5ffd5b611286826111d9565b9392505050565b5f5f6040838503121561129e575f5ffd5b6112a7836111d9565b91506112b5602084016111d9565b90509250929050565b600181811c908216806112d257607f821691505b602082108103610b9d57634e487b7160e01b5f52602260045260245ffd5b634e487b7160e01b5f52601160045260245ffd5b81810381811115610514576105146112f0565b80820180821115610514576105146112f056feddf252ad1be2c89b69c2b068fc378daa952ba7f163c4a11628f55a4df523b3efa264697066735822122067bf9a06fcce95f4bc4db06ef70518b2abe7c7a9318aecf5144fa37cbc856dcb64736f6c634300081c0033",
    "linkReferences": {}
  },
  "methodIdentifiers": {
    "allowance(address,address)": "dd62ed3e",
    "approve(address,uint256)": "095ea7b3",
    "balanceOf(address)": "70a08231",
    "burn(uint256)": "42966c68",
    "cap()": "355274ea",
    "claimFaucet()": "4fe15335",
    "decimals()": "313ce567",
    "decreaseAllowance(address,uint256)": "a457c2d7",
    "faucetAmount()": "9c281430",
    "hasClaimedFaucet(address)": "6db7494a",
    "increaseAllowance(address,uint256)": "39509351",
    "mint(address,uint256)": "40c10f19",
    "name()": "06fdde03",
    "owner()": "8da5cb5b",
    "pause()": "8456cb59",
    "paused()": "5c975abb",
    "symbol()": "95d89b41",
    "totalSupply()": "18160ddd",
    "transfer(address,uint256)": "a9059cbb",
    "transferFrom(address,address,uint256)": "23b872dd",
    "transferOwnership(address)": "f2fde38b",
    "unpause()": "3f4ba83a"
  },
  "id": 16
}